{
  "transactions": [
    {
      "hash": "0xe27b3be4572a8581c0347185ea049606ae47e53dc016ffee1f3fb98b803a6cdc",
      "transactionType": "CALL",
      "contractName": null,
      "contractAddress": "0x8fcfd6683b1186f27df161c1e0c793959cd99b9a",
      "function": "approve(address,uint256)",
      "arguments": [
        "0x000000000022D473030F116dDEE9F6B43aC78BA3",
        "115792089237316195423570985008687907853269984665640564039457584007913129639935"
      ],
      "transaction": {
        "from": "0x000000030c764379b92bb9d0ab4b3455d5dc8e92",
        "to": "0x8fcfd6683b1186f27df161c1e0c793959cd99b9a",
        "gas": "0xa2cf",
        "value": "0x0",
        "input": "0x095ea7b3000000000000000000000000000000000022d473030f116ddee9f6b43ac78ba3ffffffffffffffffffffffffffffffffffffffffffffffffffffffffffffffff",
        "nonce": "0x2ca",
        "chainId": "0xa4b1"
      },
      "additionalContracts": [],
      "isFixedGasLimit": false
    },
    {
      "hash": "0xd13e121ddaba3f5fcaebc1813e08d3a737101b3f47ba3a4868d7fd6be4a7e5f2",
      "transactionType": "CALL",
      "contractName": null,
      "contractAddress": "0x000000000022d473030f116ddee9f6b43ac78ba3",
      "function": "approve(address,address,uint160,uint48)",
      "arguments": [
        "0x8FcfD6683b1186F27dF161C1e0c793959CD99b9A",
        "0xA51afAFe0263b40EdaEf0Df8781eA9aa03E381a3",
        "1461501637330902918203684832716283019655932542975",
        "1749171279"
      ],
      "transaction": {
        "from": "0x000000030c764379b92bb9d0ab4b3455d5dc8e92",
        "to": "0x000000000022d473030f116ddee9f6b43ac78ba3",
        "gas": "0x11ac0",
        "value": "0x0",
        "input": "0x87517c450000000000000000000000008fcfd6683b1186f27df161c1e0c793959cd99b9a000000000000000000000000a51afafe0263b40edaef0df8781ea9aa03e381a3000000000000000000000000ffffffffffffffffffffffffffffffffffffffff0000000000000000000000000000000000000000000000000000000068423c4f",
        "nonce": "0x2cb",
        "chainId": "0xa4b1"
      },
      "additionalContracts": [],
      "isFixedGasLimit": false
    },
    {
      "hash": "0x05edcd79734d04d472bba0de182388effcb62b3b8194c4678f5eb69e29473d89",
      "transactionType": "CALL",
      "contractName": null,
      "contractAddress": "0xa51afafe0263b40edaef0df8781ea9aa03e381a3",
      "function": "execute(bytes,bytes[],uint256)",
      "arguments": [
        "0x10",
        "[0x000000000000000000000000000000000000000000000000000000000000004000000000000000000000000000000000000000000000000000000000000000800000000000000000000000000000000000000000000000000000000000000003060c0f00000000000000000000000000000000000000000000000000000000000000000000000000000000000000000000000000000000000000000000000003000000000000000000000000000000000000000000000000000000000000006000000000000000000000000000000000000000000000000000000000000001e00000000000000000000000000000000000000000000000000000000000000240000000000000000000000000000000000000000000000000000000000000016000000000000000000000000000000000000000000000000000000000000000200000000000000000000000008fcfd6683b1186f27df161c1e0c793959cd99b9a000000000000000000000000d1aaa1dd753610fa1f5eb7b184af26fc38ae6a5a00000000000000000000000000000000000000000000000000000000000000000000000000000000000000000000000000000000000000000000000000000001000000000000000000000000290186619837c0c65e69a1c0f7903a57dd34bfff000000000000000000000000000000000000000000000000000000000000000100000000000000000000000000000000000000000000003635c9adc5dea0000000000000000000000000000000000000000000000000000000000000000000000000000000000000000000000000000000000000000000000000000000000120000000000000000000000000000000000000000000000000000000000000000000000000000000000000000000000000000000000000000000000000000000400000000000000000000000008fcfd6683b1186f27df161c1e0c793959cd99b9a00000000000000000000000000000000000000000000003635c9adc5dea000000000000000000000000000000000000000000000000000000000000000000040000000000000000000000000d1aaa1dd753610fa1f5eb7b184af26fc38ae6a5a0000000000000000000000000000000000000000000000000000000000000000]",
        "1749170439"
      ],
      "transaction": {
        "from": "0x000000030c764379b92bb9d0ab4b3455d5dc8e92",
        "to": "0xa51afafe0263b40edaef0df8781ea9aa03e381a3",
        "gas": "0x3c81e",
        "value": "0x0",
        "input": "0x3593564c000000000000000000000000000000000000000000000000000000000000006000000000000000000000000000000000000000000000000000000000000000a0000000000000000000000000000000000000000000000000000000006842390700000000000000000000000000000000000000000000000000000000000000011000000000000000000000000000000000000000000000000000000000000000000000000000000000000000000000000000000000000000000000000000000100000000000000000000000000000000000000000000000000000000000000200000000000000000000000000000000000000000000000000000000000000340000000000000000000000000000000000000000000000000000000000000004000000000000000000000000000000000000000000000000000000000000000800000000000000000000000000000000000000000000000000000000000000003060c0f00000000000000000000000000000000000000000000000000000000000000000000000000000000000000000000000000000000000000000000000003000000000000000000000000000000000000000000000000000000000000006000000000000000000000000000000000000000000000000000000000000001e00000000000000000000000000000000000000000000000000000000000000240000000000000000000000000000000000000000000000000000000000000016000000000000000000000000000000000000000000000000000000000000000200000000000000000000000008fcfd6683b1186f27df161c1e0c793959cd99b9a000000000000000000000000d1aaa1dd753610fa1f5eb7b184af26fc38ae6a5a00000000000000000000000000000000000000000000000000000000000000000000000000000000000000000000000000000000000000000000000000000001000000000000000000000000290186619837c0c65e69a1c0f7903a57dd34bfff000000000000000000000000000000000000000000000000000000000000000100000000000000000000000000000000000000000000003635c9adc5dea0000000000000000000000000000000000000000000000000000000000000000000000000000000000000000000000000000000000000000000000000000000000120000000000000000000000000000000000000000000000000000000000000000000000000000000000000000000000000000000000000000000000000000000400000000000000000000000008fcfd6683b1186f27df161c1e0c793959cd99b9a00000000000000000000000000000000000000000000003635c9adc5dea000000000000000000000000000000000000000000000000000000000000000000040000000000000000000000000d1aaa1dd753610fa1f5eb7b184af26fc38ae6a5a0000000000000000000000000000000000000000000000000000000000000000",
        "nonce": "0x2cc",
        "chainId": "0xa4b1"
      },
      "additionalContracts": [],
      "isFixedGasLimit": false
    }
  ],
  "receipts": [
    {
      "status": "0x1",
      "cumulativeGasUsed": "0x16454",
      "logs": [
        {
          "address": "0x8fcfd6683b1186f27df161c1e0c793959cd99b9a",
          "topics": [
            "0x8c5be1e5ebec7d5bd14f71427d1e84f3dd0314c0f7b2291e5b200ac8c7c3b925",
            "0x000000000000000000000000000000030c764379b92bb9d0ab4b3455d5dc8e92",
            "0x000000000000000000000000000000000022d473030f116ddee9f6b43ac78ba3"
          ],
          "data": "0xffffffffffffffffffffffffffffffffffffffffffffffffffffffffffffffff",
          "blockHash": "0x421063aadac568747a8c0d3135b24a7ff4b372e51a75996bb5b4946d7f5b7a7d",
          "blockNumber": "0x14862eb7",
          "transactionHash": "0xe27b3be4572a8581c0347185ea049606ae47e53dc016ffee1f3fb98b803a6cdc",
          "transactionIndex": "0x2",
          "logIndex": "0x1",
          "removed": false
        }
      ],
      "logsBloom": "0x00000000000000000000000001000000000000000000000004000000000000000000000000000000000000000000000000000000800000000000000000200000000000000000000000006000000000000000000000000800000000000000000000000000000000000000000000000000000000000000000000000000000000000000000000000000000000000400000000000000000000000000000004800000020000000000000000000000000000000000000000000000000000000000000000000000000000000000000000000000000000000000000000000000000000000010000000000000000000000000000000000000000000000000000000000000",
      "type": "0x2",
      "transactionHash": "0xe27b3be4572a8581c0347185ea049606ae47e53dc016ffee1f3fb98b803a6cdc",
      "transactionIndex": "0x2",
      "blockHash": "0x421063aadac568747a8c0d3135b24a7ff4b372e51a75996bb5b4946d7f5b7a7d",
      "blockNumber": "0x14862eb7",
      "gasUsed": "0x77a0",
      "effectiveGasPrice": "0x989680",
      "from": "0x000000030c764379b92bb9d0ab4b3455d5dc8e92",
      "to": "0x8fcfd6683b1186f27df161c1e0c793959cd99b9a",
      "contractAddress": null,
      "gasUsedForL1": "0x10db",
      "l1BlockNumber": "0x1597d77",
      "timeboosted": false
    },
    {
      "status": "0x1",
      "cumulativeGasUsed": "0xa21bf",
      "logs": [
        {
          "address": "0x000000000022d473030f116ddee9f6b43ac78ba3",
          "topics": [
            "0xda9fa7c1b00402c17d0161b249b1ab8bbec047c5a52207b9c112deffd817036b",
            "0x000000000000000000000000000000030c764379b92bb9d0ab4b3455d5dc8e92",
            "0x0000000000000000000000008fcfd6683b1186f27df161c1e0c793959cd99b9a",
            "0x000000000000000000000000a51afafe0263b40edaef0df8781ea9aa03e381a3"
          ],
          "data": "0x000000000000000000000000ffffffffffffffffffffffffffffffffffffffff0000000000000000000000000000000000000000000000000000000068423c4f",
          "blockHash": "0x453229398b556f88de7191e6d0b646d94e72547be09ad035a416abb7a8bfc01a",
          "blockNumber": "0x14862ebd",
          "transactionHash": "0xd13e121ddaba3f5fcaebc1813e08d3a737101b3f47ba3a4868d7fd6be4a7e5f2",
          "transactionIndex": "0x3",
          "logIndex": "0xf",
          "removed": false
        }
      ],
      "logsBloom": "0x00010000000000000000000041000000000000000000000004000000000000000000000000000000000000000000000000000000000000000000000000080000000000000000000000002000000000040000000000000000000000000000000000000000000000000000000000000000000000000000000000000000000000000020000000000000000000000000000000000000000008000000000000000000000000000000000000000000000000000000000000000000000000080000000000000000000000000000000000000000000000000000000040000000000000000000000010000400000000000000000000000000000000000000000000000400",
      "type": "0x2",
      "transactionHash": "0xd13e121ddaba3f5fcaebc1813e08d3a737101b3f47ba3a4868d7fd6be4a7e5f2",
      "transactionIndex": "0x3",
      "blockHash": "0x453229398b556f88de7191e6d0b646d94e72547be09ad035a416abb7a8bfc01a",
      "blockNumber": "0x14862ebd",
      "gasUsed": "0xd192",
      "effectiveGasPrice": "0x989680",
      "from": "0x000000030c764379b92bb9d0ab4b3455d5dc8e92",
      "to": "0x000000000022d473030f116ddee9f6b43ac78ba3",
      "contractAddress": null,
      "gasUsedForL1": "0x16e0",
      "l1BlockNumber": "0x1597d77",
      "timeboosted": false
    },
    {
      "status": "0x1",
      "cumulativeGasUsed": "0x2e269",
      "logs": [
        {
          "address": "0x360e68faccca8ca495c1b759fd9eee466db9fb32",
          "topics": [
            "0x1b3d7edb2e9c0b0e7c525b20aaaef0f5940d2ed71663c7d39266ecafac728859",
            "0x0000000000000000000000000000000000000000000000000000000000000000",
            "0x000000000000000000000000290186619837c0c65e69a1c0f7903a57dd34bfff",
            "0x0000000000000000000000008fcfd6683b1186f27df161c1e0c793959cd99b9a"
          ],
          "data": "0x000000000000000000000000290186619837c0c65e69a1c0f7903a57dd34bfff0000000000000000000000000000000000000000000000362ed9526c0aee0000",
          "blockHash": "0x6a4a7725bf877acc171d51c70039563745fb6a4a9000688c495878e0f5768488",
          "blockNumber": "0x14862ec3",
          "transactionHash": "0x05edcd79734d04d472bba0de182388effcb62b3b8194c4678f5eb69e29473d89",
          "transactionIndex": "0x1",
          "logIndex": "0x0",
          "removed": false
        },
        {
          "address": "0x8fcfd6683b1186f27df161c1e0c793959cd99b9a",
          "topics": [
            "0xddf252ad1be2c89b69c2b068fc378daa952ba7f163c4a11628f55a4df523b3ef",
            "0x000000000000000000000000360e68faccca8ca495c1b759fd9eee466db9fb32",
            "0x000000000000000000000000000000030c764379b92bb9d0ab4b3455d5dc8e92"
          ],
          "data": "0x00000000000000000000000000000000000000000000000006f05b59d3b20000",
          "blockHash": "0x6a4a7725bf877acc171d51c70039563745fb6a4a9000688c495878e0f5768488",
          "blockNumber": "0x14862ec3",
          "transactionHash": "0x05edcd79734d04d472bba0de182388effcb62b3b8194c4678f5eb69e29473d89",
          "transactionIndex": "0x1",
          "logIndex": "0x1",
          "removed": false
        },
        {
          "address": "0x360e68faccca8ca495c1b759fd9eee466db9fb32",
          "topics": [
            "0x1b3d7edb2e9c0b0e7c525b20aaaef0f5940d2ed71663c7d39266ecafac728859",
            "0x000000000000000000000000290186619837c0c65e69a1c0f7903a57dd34bfff",
            "0x0000000000000000000000000000000000000000000000000000000000000000",
            "0x000000000000000000000000d1aaa1dd753610fa1f5eb7b184af26fc38ae6a5a"
          ],
          "data": "0x000000000000000000000000290186619837c0c65e69a1c0f7903a57dd34bfff0000000000000000000000000000000000000000000000362ed951f7dc2ad33c",
          "blockHash": "0x6a4a7725bf877acc171d51c70039563745fb6a4a9000688c495878e0f5768488",
          "blockNumber": "0x14862ec3",
          "transactionHash": "0x05edcd79734d04d472bba0de182388effcb62b3b8194c4678f5eb69e29473d89",
          "transactionIndex": "0x1",
          "logIndex": "0x2",
          "removed": false
        },
        {
          "address": "0x290186619837c0c65e69a1c0f7903a57dd34bfff",
          "topics": [
            "0x365f10e9e7ce45d7acfd986c42e0b666f8af282e440e6dafc78c1f2b2f786760",
            "0xa96753f9a6bc36378a59aa189b928c272e9deafaa8c995a48033d94250dc863a",
            "0x000000000000000000000000a51afafe0263b40edaef0df8781ea9aa03e381a3"
          ],
          "data": "0x00000000000000000000000000000000000000000000003635c9adc5dea00000ffffffffffffffffffffffffffffffffffffffffffffffc9d126ae0823d52cc400000000000000000000000000000000000000000000000006f05b59d3b200000000000000000000000000000000000000000000000000000000000000000000",
          "blockHash": "0x6a4a7725bf877acc171d51c70039563745fb6a4a9000688c495878e0f5768488",
          "blockNumber": "0x14862ec3",
          "transactionHash": "0x05edcd79734d04d472bba0de182388effcb62b3b8194c4678f5eb69e29473d89",
          "transactionIndex": "0x1",
          "logIndex": "0x3",
          "removed": false
        },
        {
          "address": "0x360e68faccca8ca495c1b759fd9eee466db9fb32",
          "topics": [
            "0x40e9cecb9f5f1f1c5b9c97dec2917b7ee92e57ba5563708daca94dd84ad7112f",
            "0xa96753f9a6bc36378a59aa189b928c272e9deafaa8c995a48033d94250dc863a",
            "0x000000000000000000000000a51afafe0263b40edaef0df8781ea9aa03e381a3"
          ],
          "data": "0x000000000000000000000000000000000000000000000000000000000000000000000000000000000000000000000000000000000000000000000000000000000000000000000000000000000000000000000001000000000000000000000000000000000000000000000000000000000000000000000000000000000000000000000000000000000000000000000000000000000000000000000000000000000000000000000000000000000000000000000000000000000000000000000000",
          "blockHash": "0x6a4a7725bf877acc171d51c70039563745fb6a4a9000688c495878e0f5768488",
          "blockNumber": "0x14862ec3",
          "transactionHash": "0x05edcd79734d04d472bba0de182388effcb62b3b8194c4678f5eb69e29473d89",
          "transactionIndex": "0x1",
          "logIndex": "0x4",
          "removed": false
        },
        {
          "address": "0x8fcfd6683b1186f27df161c1e0c793959cd99b9a",
          "topics": [
            "0xddf252ad1be2c89b69c2b068fc378daa952ba7f163c4a11628f55a4df523b3ef",
            "0x000000000000000000000000000000030c764379b92bb9d0ab4b3455d5dc8e92",
            "0x000000000000000000000000360e68faccca8ca495c1b759fd9eee466db9fb32"
          ],
          "data": "0x00000000000000000000000000000000000000000000003635c9adc5dea00000",
          "blockHash": "0x6a4a7725bf877acc171d51c70039563745fb6a4a9000688c495878e0f5768488",
          "blockNumber": "0x14862ec3",
          "transactionHash": "0x05edcd79734d04d472bba0de182388effcb62b3b8194c4678f5eb69e29473d89",
          "transactionIndex": "0x1",
          "logIndex": "0x5",
          "removed": false
        },
        {
          "address": "0xd1aaa1dd753610fa1f5eb7b184af26fc38ae6a5a",
          "topics": [
            "0xddf252ad1be2c89b69c2b068fc378daa952ba7f163c4a11628f55a4df523b3ef",
            "0x000000000000000000000000360e68faccca8ca495c1b759fd9eee466db9fb32",
            "0x000000000000000000000000000000030c764379b92bb9d0ab4b3455d5dc8e92"
          ],
          "data": "0x0000000000000000000000000000000000000000000000362ed951f7dc2ad33c",
          "blockHash": "0x6a4a7725bf877acc171d51c70039563745fb6a4a9000688c495878e0f5768488",
          "blockNumber": "0x14862ec3",
          "transactionHash": "0x05edcd79734d04d472bba0de182388effcb62b3b8194c4678f5eb69e29473d89",
          "transactionIndex": "0x1",
          "logIndex": "0x6",
          "removed": false
        }
      ],
      "logsBloom": "0x00010000010000000000000041004000000000000000000204000000000000000000000000008000000000000800000000000000040000004000000001000000000000000000000001002008000804040000000000000020000000000000000000400000020000000000000000000800000000000000008000000010000000000000000000000000000000000400000000000000000028000000000004800000000000000000000000040000000021000020010001000000000000000000000400000002000000000400000000000000000004000000000004200000000020000000000010000400004008000000000000000000000000000000000004000008",
      "type": "0x2",
      "transactionHash": "0x05edcd79734d04d472bba0de182388effcb62b3b8194c4678f5eb69e29473d89",
      "transactionIndex": "0x1",
      "blockHash": "0x6a4a7725bf877acc171d51c70039563745fb6a4a9000688c495878e0f5768488",
      "blockNumber": "0x14862ec3",
      "gasUsed": "0x2e269",
      "effectiveGasPrice": "0x989680",
      "from": "0x000000030c764379b92bb9d0ab4b3455d5dc8e92",
      "to": "0xa51afafe0263b40edaef0df8781ea9aa03e381a3",
      "contractAddress": null,
      "gasUsedForL1": "0x2582",
      "l1BlockNumber": "0x1597d77",
      "timeboosted": false
    }
  ],
  "libraries": [],
  "pending": [],
  "returns": {},
  "timestamp": 1749170401,
  "chain": 42161,
  "commit": "09175f4"
}