{
  "transactions": [
    {
      "hash": "0x5437e6ae15e9d397026f0b0629eff17fdc27b7463295a3557a86da012c7d2ad1",
      "transactionType": "CALL",
      "contractName": null,
      "contractAddress": "0x8fcfd6683b1186f27df161c1e0c793959cd99b9a",
      "function": "approve(address,uint256)",
      "arguments": [
        "0x000000000022D473030F116dDEE9F6B43aC78BA3",
        "115792089237316195423570985008687907853269984665640564039457584007913129639935"
      ],
      "transaction": {
        "from": "0x000000030c764379b92bb9d0ab4b3455d5dc8e92",
        "to": "0x8fcfd6683b1186f27df161c1e0c793959cd99b9a",
        "gas": "0xba4b",
        "value": "0x0",
        "input": "0x095ea7b3000000000000000000000000000000000022d473030f116ddee9f6b43ac78ba3ffffffffffffffffffffffffffffffffffffffffffffffffffffffffffffffff",
        "nonce": "0x2cd",
        "chainId": "0xa4b1"
      },
      "additionalContracts": [],
      "isFixedGasLimit": false
    },
    {
      "hash": null,
      "transactionType": "CALL",
      "contractName": null,
      "contractAddress": "0x000000000022d473030f116ddee9f6b43ac78ba3",
      "function": "approve(address,address,uint160,uint48)",
      "arguments": [
        "0x8FcfD6683b1186F27dF161C1e0c793959CD99b9A",
        "0xA51afAFe0263b40EdaEf0Df8781eA9aa03E381a3",
        "1461501637330902918203684832716283019655932542975",
        "1749171447"
      ],
      "transaction": {
        "from": "0x000000030c764379b92bb9d0ab4b3455d5dc8e92",
        "to": "0x000000000022d473030f116ddee9f6b43ac78ba3",
        "gas": "0xe205",
        "value": "0x0",
        "input": "0x87517c450000000000000000000000008fcfd6683b1186f27df161c1e0c793959cd99b9a000000000000000000000000a51afafe0263b40edaef0df8781ea9aa03e381a3000000000000000000000000ffffffffffffffffffffffffffffffffffffffff0000000000000000000000000000000000000000000000000000000068423cf7",
        "nonce": "0x2ce",
        "chainId": "0xa4b1"
      },
      "additionalContracts": [],
      "isFixedGasLimit": false
    },
    {
      "hash": null,
      "transactionType": "CALL",
      "contractName": null,
      "contractAddress": "0xa51afafe0263b40edaef0df8781ea9aa03e381a3",
      "function": "execute(bytes,bytes[],uint256)",
      "arguments": [
        "0x10",
        "[0x000000000000000000000000000000000000000000000000000000000000004000000000000000000000000000000000000000000000000000000000000000800000000000000000000000000000000000000000000000000000000000000003060c0f00000000000000000000000000000000000000000000000000000000000000000000000000000000000000000000000000000000000000000000000003000000000000000000000000000000000000000000000000000000000000006000000000000000000000000000000000000000000000000000000000000001e00000000000000000000000000000000000000000000000000000000000000240000000000000000000000000000000000000000000000000000000000000016000000000000000000000000000000000000000000000000000000000000000200000000000000000000000008fcfd6683b1186f27df161c1e0c793959cd99b9a000000000000000000000000d1aaa1dd753610fa1f5eb7b184af26fc38ae6a5a00000000000000000000000000000000000000000000000000000000000000000000000000000000000000000000000000000000000000000000000000000001000000000000000000000000290186619837c0c65e69a1c0f7903a57dd34bfff000000000000000000000000000000000000000000000000000000000000000100000000000000000000000000000000000000000000003635c9adc5dea0000000000000000000000000000000000000000000000000000000000000000000000000000000000000000000000000000000000000000000000000000000000120000000000000000000000000000000000000000000000000000000000000000000000000000000000000000000000000000000000000000000000000000000400000000000000000000000008fcfd6683b1186f27df161c1e0c793959cd99b9a00000000000000000000000000000000000000000000003635c9adc5dea000000000000000000000000000000000000000000000000000000000000000000040000000000000000000000000d1aaa1dd753610fa1f5eb7b184af26fc38ae6a5a0000000000000000000000000000000000000000000000000000000000000000]",
        "1749170607"
      ],
      "transaction": {
        "from": "0x000000030c764379b92bb9d0ab4b3455d5dc8e92",
        "to": "0xa51afafe0263b40edaef0df8781ea9aa03e381a3",
        "gas": "0x41560",
        "value": "0x0",
        "input": "0x3593564c000000000000000000000000000000000000000000000000000000000000006000000000000000000000000000000000000000000000000000000000000000a000000000000000000000000000000000000000000000000000000000684239af00000000000000000000000000000000000000000000000000000000000000011000000000000000000000000000000000000000000000000000000000000000000000000000000000000000000000000000000000000000000000000000000100000000000000000000000000000000000000000000000000000000000000200000000000000000000000000000000000000000000000000000000000000340000000000000000000000000000000000000000000000000000000000000004000000000000000000000000000000000000000000000000000000000000000800000000000000000000000000000000000000000000000000000000000000003060c0f00000000000000000000000000000000000000000000000000000000000000000000000000000000000000000000000000000000000000000000000003000000000000000000000000000000000000000000000000000000000000006000000000000000000000000000000000000000000000000000000000000001e00000000000000000000000000000000000000000000000000000000000000240000000000000000000000000000000000000000000000000000000000000016000000000000000000000000000000000000000000000000000000000000000200000000000000000000000008fcfd6683b1186f27df161c1e0c793959cd99b9a000000000000000000000000d1aaa1dd753610fa1f5eb7b184af26fc38ae6a5a00000000000000000000000000000000000000000000000000000000000000000000000000000000000000000000000000000000000000000000000000000001000000000000000000000000290186619837c0c65e69a1c0f7903a57dd34bfff000000000000000000000000000000000000000000000000000000000000000100000000000000000000000000000000000000000000003635c9adc5dea0000000000000000000000000000000000000000000000000000000000000000000000000000000000000000000000000000000000000000000000000000000000120000000000000000000000000000000000000000000000000000000000000000000000000000000000000000000000000000000000000000000000000000000400000000000000000000000008fcfd6683b1186f27df161c1e0c793959cd99b9a00000000000000000000000000000000000000000000003635c9adc5dea000000000000000000000000000000000000000000000000000000000000000000040000000000000000000000000d1aaa1dd753610fa1f5eb7b184af26fc38ae6a5a0000000000000000000000000000000000000000000000000000000000000000",
        "nonce": "0x2cf",
        "chainId": "0xa4b1"
      },
      "additionalContracts": [],
      "isFixedGasLimit": false
    }
  ],
  "receipts": [],
  "libraries": [],
  "pending": [],
  "returns": {},
  "timestamp": 1749170565,
  "chain": 42161,
  "commit": "09175f4"
}