{
  "transactions": [
    {
      "hash": "0x7ee4f0dc403da4703d2a5a5a089ce55103fcfe12299a82afa569f68d22fc7849",
      "transactionType": "CALL",
      "contractName": null,
      "contractAddress": "0x8fcfd6683b1186f27df161c1e0c793959cd99b9a",
      "function": "approve(address,uint256)",
      "arguments": [
        "0x000000000022D473030F116dDEE9F6B43aC78BA3",
        "115792089237316195423570985008687907853269984665640564039457584007913129639935"
      ],
      "transaction": {
        "from": "0x000000030c764379b92bb9d0ab4b3455d5dc8e92",
        "to": "0x8fcfd6683b1186f27df161c1e0c793959cd99b9a",
        "gas": "0xbbc8",
        "value": "0x0",
        "input": "0x095ea7b3000000000000000000000000000000000022d473030f116ddee9f6b43ac78ba3ffffffffffffffffffffffffffffffffffffffffffffffffffffffffffffffff",
        "nonce": "0x2ce",
        "chainId": "0xa4b1"
      },
      "additionalContracts": [],
      "isFixedGasLimit": false
    },
    {
      "hash": "0x9462add5222ce4010639353ad7b94613ee19e1efe92cf38b605ce7fa4ce1a073",
      "transactionType": "CALL",
      "contractName": null,
      "contractAddress": "0x000000000022d473030f116ddee9f6b43ac78ba3",
      "function": "approve(address,address,uint160,uint48)",
      "arguments": [
        "0x8FcfD6683b1186F27dF161C1e0c793959CD99b9A",
        "0xA51afAFe0263b40EdaEf0Df8781eA9aa03E381a3",
        "1461501637330902918203684832716283019655932542975",
        "1749171477"
      ],
      "transaction": {
        "from": "0x000000030c764379b92bb9d0ab4b3455d5dc8e92",
        "to": "0x000000000022d473030f116ddee9f6b43ac78ba3",
        "gas": "0xe088",
        "value": "0x0",
        "input": "0x87517c450000000000000000000000008fcfd6683b1186f27df161c1e0c793959cd99b9a000000000000000000000000a51afafe0263b40edaef0df8781ea9aa03e381a3000000000000000000000000ffffffffffffffffffffffffffffffffffffffff0000000000000000000000000000000000000000000000000000000068423d15",
        "nonce": "0x2cf",
        "chainId": "0xa4b1"
      },
      "additionalContracts": [],
      "isFixedGasLimit": false
    },
    {
      "hash": "0x0cb067d3cf240b2904fa99c9c1a3cd7be8cba1ea55655d1d96e71793aae65272",
      "transactionType": "CALL",
      "contractName": null,
      "contractAddress": "0xa51afafe0263b40edaef0df8781ea9aa03e381a3",
      "function": "execute(bytes,bytes[],uint256)",
      "arguments": [
        "0x10",
        "[0x000000000000000000000000000000000000000000000000000000000000004000000000000000000000000000000000000000000000000000000000000000800000000000000000000000000000000000000000000000000000000000000003060c0f00000000000000000000000000000000000000000000000000000000000000000000000000000000000000000000000000000000000000000000000003000000000000000000000000000000000000000000000000000000000000006000000000000000000000000000000000000000000000000000000000000001e00000000000000000000000000000000000000000000000000000000000000240000000000000000000000000000000000000000000000000000000000000016000000000000000000000000000000000000000000000000000000000000000200000000000000000000000008fcfd6683b1186f27df161c1e0c793959cd99b9a000000000000000000000000d1aaa1dd753610fa1f5eb7b184af26fc38ae6a5a00000000000000000000000000000000000000000000000000000000000000000000000000000000000000000000000000000000000000000000000000000001000000000000000000000000290186619837c0c65e69a1c0f7903a57dd34bfff000000000000000000000000000000000000000000000000000000000000000100000000000000000000000000000000000000000000003635c9adc5dea0000000000000000000000000000000000000000000000000000000000000000000000000000000000000000000000000000000000000000000000000000000000120000000000000000000000000000000000000000000000000000000000000000000000000000000000000000000000000000000000000000000000000000000400000000000000000000000008fcfd6683b1186f27df161c1e0c793959cd99b9a00000000000000000000000000000000000000000000003635c9adc5dea000000000000000000000000000000000000000000000000000000000000000000040000000000000000000000000d1aaa1dd753610fa1f5eb7b184af26fc38ae6a5a0000000000000000000000000000000000000000000000000000000000000000]",
        "1749170637"
      ],
      "transaction": {
        "from": "0x000000030c764379b92bb9d0ab4b3455d5dc8e92",
        "to": "0xa51afafe0263b40edaef0df8781ea9aa03e381a3",
        "gas": "0x415a0",
        "value": "0x0",
        "input": "0x3593564c000000000000000000000000000000000000000000000000000000000000006000000000000000000000000000000000000000000000000000000000000000a000000000000000000000000000000000000000000000000000000000684239cd00000000000000000000000000000000000000000000000000000000000000011000000000000000000000000000000000000000000000000000000000000000000000000000000000000000000000000000000000000000000000000000000100000000000000000000000000000000000000000000000000000000000000200000000000000000000000000000000000000000000000000000000000000340000000000000000000000000000000000000000000000000000000000000004000000000000000000000000000000000000000000000000000000000000000800000000000000000000000000000000000000000000000000000000000000003060c0f00000000000000000000000000000000000000000000000000000000000000000000000000000000000000000000000000000000000000000000000003000000000000000000000000000000000000000000000000000000000000006000000000000000000000000000000000000000000000000000000000000001e00000000000000000000000000000000000000000000000000000000000000240000000000000000000000000000000000000000000000000000000000000016000000000000000000000000000000000000000000000000000000000000000200000000000000000000000008fcfd6683b1186f27df161c1e0c793959cd99b9a000000000000000000000000d1aaa1dd753610fa1f5eb7b184af26fc38ae6a5a00000000000000000000000000000000000000000000000000000000000000000000000000000000000000000000000000000000000000000000000000000001000000000000000000000000290186619837c0c65e69a1c0f7903a57dd34bfff000000000000000000000000000000000000000000000000000000000000000100000000000000000000000000000000000000000000003635c9adc5dea0000000000000000000000000000000000000000000000000000000000000000000000000000000000000000000000000000000000000000000000000000000000120000000000000000000000000000000000000000000000000000000000000000000000000000000000000000000000000000000000000000000000000000000400000000000000000000000008fcfd6683b1186f27df161c1e0c793959cd99b9a00000000000000000000000000000000000000000000003635c9adc5dea000000000000000000000000000000000000000000000000000000000000000000040000000000000000000000000d1aaa1dd753610fa1f5eb7b184af26fc38ae6a5a0000000000000000000000000000000000000000000000000000000000000000",
        "nonce": "0x2d0",
        "chainId": "0xa4b1"
      },
      "additionalContracts": [],
      "isFixedGasLimit": false
    }
  ],
  "receipts": [
    {
      "status": "0x1",
      "cumulativeGasUsed": "0x1297ae",
      "logs": [
        {
          "address": "0x8fcfd6683b1186f27df161c1e0c793959cd99b9a",
          "topics": [
            "0x8c5be1e5ebec7d5bd14f71427d1e84f3dd0314c0f7b2291e5b200ac8c7c3b925",
            "0x000000000000000000000000000000030c764379b92bb9d0ab4b3455d5dc8e92",
            "0x000000000000000000000000000000000022d473030f116ddee9f6b43ac78ba3"
          ],
          "data": "0xffffffffffffffffffffffffffffffffffffffffffffffffffffffffffffffff",
          "blockHash": "0xc76d6748e88769061ed7ed2ac0781839a0be913db07abdf2264773c948f7284f",
          "blockNumber": "0x148631d3",
          "transactionHash": "0x7ee4f0dc403da4703d2a5a5a089ce55103fcfe12299a82afa569f68d22fc7849",
          "transactionIndex": "0x2",
          "logIndex": "0x0",
          "removed": false
        }
      ],
      "logsBloom": "0x00000000000000000000000001000000000000000000000004000000000000000000000000000000000000000000000000000000800000000000000000200000000000000000000000006000000000000000000000000800000000000000000000000000000000000000000000000000000000000000000000000000000000000000000000000000000000000400000000000000000000000000000004800000020000000000000000000000000000000000000000000000000000000000000000000000000000000000000000000000000000000000000000000000000000000010000000000000000000000000000000000000000000000000000000000000",
      "type": "0x2",
      "transactionHash": "0x7ee4f0dc403da4703d2a5a5a089ce55103fcfe12299a82afa569f68d22fc7849",
      "transactionIndex": "0x2",
      "blockHash": "0xc76d6748e88769061ed7ed2ac0781839a0be913db07abdf2264773c948f7284f",
      "blockNumber": "0x148631d3",
      "gasUsed": "0x8609",
      "effectiveGasPrice": "0x989680",
      "from": "0x000000030c764379b92bb9d0ab4b3455d5dc8e92",
      "to": "0x8fcfd6683b1186f27df161c1e0c793959cd99b9a",
      "contractAddress": null,
      "gasUsedForL1": "0x1f44",
      "l1BlockNumber": "0x1597d88",
      "timeboosted": false
    },
    {
      "status": "0x1",
      "cumulativeGasUsed": "0x4804a",
      "logs": [
        {
          "address": "0x000000000022d473030f116ddee9f6b43ac78ba3",
          "topics": [
            "0xda9fa7c1b00402c17d0161b249b1ab8bbec047c5a52207b9c112deffd817036b",
            "0x000000000000000000000000000000030c764379b92bb9d0ab4b3455d5dc8e92",
            "0x0000000000000000000000008fcfd6683b1186f27df161c1e0c793959cd99b9a",
            "0x000000000000000000000000a51afafe0263b40edaef0df8781ea9aa03e381a3"
          ],
          "data": "0x000000000000000000000000ffffffffffffffffffffffffffffffffffffffff0000000000000000000000000000000000000000000000000000000068423d15",
          "blockHash": "0x6254ce6f2858b389e369dc121c3ca3738cbbd03984759fc59ecd7f14fc0f7521",
          "blockNumber": "0x148631d9",
          "transactionHash": "0x9462add5222ce4010639353ad7b94613ee19e1efe92cf38b605ce7fa4ce1a073",
          "transactionIndex": "0x3",
          "logIndex": "0x6",
          "removed": false
        }
      ],
      "logsBloom": "0x00010000000000000000000041000000000000000000000004000000000000000000000000000000000000000000000000000000000000000000000000080000000000000000000000002000000000040000000000000000000000000000000000000000000000000000000000000000000000000000000000000000000000000020000000000000000000000000000000000000000008000000000000000000000000000000000000000000000000000000000000000000000000080000000000000000000000000000000000000000000000000000000040000000000000000000000010000400000000000000000000000000000000000000000000000400",
      "type": "0x2",
      "transactionHash": "0x9462add5222ce4010639353ad7b94613ee19e1efe92cf38b605ce7fa4ce1a073",
      "transactionIndex": "0x3",
      "blockHash": "0x6254ce6f2858b389e369dc121c3ca3738cbbd03984759fc59ecd7f14fc0f7521",
      "blockNumber": "0x148631d9",
      "gasUsed": "0xa229",
      "effectiveGasPrice": "0x989680",
      "from": "0x000000030c764379b92bb9d0ab4b3455d5dc8e92",
      "to": "0x000000000022d473030f116ddee9f6b43ac78ba3",
      "contractAddress": null,
      "gasUsedForL1": "0x2a43",
      "l1BlockNumber": "0x1597d88",
      "timeboosted": false
    },
    {
      "status": "0x1",
      "cumulativeGasUsed": "0x4b49c",
      "logs": [
        {
          "address": "0x360e68faccca8ca495c1b759fd9eee466db9fb32",
          "topics": [
            "0x1b3d7edb2e9c0b0e7c525b20aaaef0f5940d2ed71663c7d39266ecafac728859",
            "0x0000000000000000000000000000000000000000000000000000000000000000",
            "0x000000000000000000000000290186619837c0c65e69a1c0f7903a57dd34bfff",
            "0x0000000000000000000000008fcfd6683b1186f27df161c1e0c793959cd99b9a"
          ],
          "data": "0x000000000000000000000000290186619837c0c65e69a1c0f7903a57dd34bfff0000000000000000000000000000000000000000000000362ed9526c0aee0000",
          "blockHash": "0xa50a7fdc662661d515401fb33c1d09bed48d9ced1fe30e665d2c2be0c265e9ab",
          "blockNumber": "0x148631df",
          "transactionHash": "0x0cb067d3cf240b2904fa99c9c1a3cd7be8cba1ea55655d1d96e71793aae65272",
          "transactionIndex": "0x3",
          "logIndex": "0x2",
          "removed": false
        },
        {
          "address": "0x8fcfd6683b1186f27df161c1e0c793959cd99b9a",
          "topics": [
            "0xddf252ad1be2c89b69c2b068fc378daa952ba7f163c4a11628f55a4df523b3ef",
            "0x000000000000000000000000360e68faccca8ca495c1b759fd9eee466db9fb32",
            "0x000000000000000000000000000000030c764379b92bb9d0ab4b3455d5dc8e92"
          ],
          "data": "0x00000000000000000000000000000000000000000000000006f05b59d3b20000",
          "blockHash": "0xa50a7fdc662661d515401fb33c1d09bed48d9ced1fe30e665d2c2be0c265e9ab",
          "blockNumber": "0x148631df",
          "transactionHash": "0x0cb067d3cf240b2904fa99c9c1a3cd7be8cba1ea55655d1d96e71793aae65272",
          "transactionIndex": "0x3",
          "logIndex": "0x3",
          "removed": false
        },
        {
          "address": "0x360e68faccca8ca495c1b759fd9eee466db9fb32",
          "topics": [
            "0x1b3d7edb2e9c0b0e7c525b20aaaef0f5940d2ed71663c7d39266ecafac728859",
            "0x000000000000000000000000290186619837c0c65e69a1c0f7903a57dd34bfff",
            "0x0000000000000000000000000000000000000000000000000000000000000000",
            "0x000000000000000000000000d1aaa1dd753610fa1f5eb7b184af26fc38ae6a5a"
          ],
          "data": "0x000000000000000000000000290186619837c0c65e69a1c0f7903a57dd34bfff0000000000000000000000000000000000000000000000362ed94b9d4d7f3ab3",
          "blockHash": "0xa50a7fdc662661d515401fb33c1d09bed48d9ced1fe30e665d2c2be0c265e9ab",
          "blockNumber": "0x148631df",
          "transactionHash": "0x0cb067d3cf240b2904fa99c9c1a3cd7be8cba1ea55655d1d96e71793aae65272",
          "transactionIndex": "0x3",
          "logIndex": "0x4",
          "removed": false
        },
        {
          "address": "0x290186619837c0c65e69a1c0f7903a57dd34bfff",
          "topics": [
            "0x365f10e9e7ce45d7acfd986c42e0b666f8af282e440e6dafc78c1f2b2f786760",
            "0xa96753f9a6bc36378a59aa189b928c272e9deafaa8c995a48033d94250dc863a",
            "0x000000000000000000000000a51afafe0263b40edaef0df8781ea9aa03e381a3"
          ],
          "data": "0x00000000000000000000000000000000000000000000003635c9adc5dea00000ffffffffffffffffffffffffffffffffffffffffffffffc9d126b462b280c54d00000000000000000000000000000000000000000000000006f05b59d3b200000000000000000000000000000000000000000000000000000000000000000000",
          "blockHash": "0xa50a7fdc662661d515401fb33c1d09bed48d9ced1fe30e665d2c2be0c265e9ab",
          "blockNumber": "0x148631df",
          "transactionHash": "0x0cb067d3cf240b2904fa99c9c1a3cd7be8cba1ea55655d1d96e71793aae65272",
          "transactionIndex": "0x3",
          "logIndex": "0x5",
          "removed": false
        },
        {
          "address": "0x360e68faccca8ca495c1b759fd9eee466db9fb32",
          "topics": [
            "0x40e9cecb9f5f1f1c5b9c97dec2917b7ee92e57ba5563708daca94dd84ad7112f",
            "0xa96753f9a6bc36378a59aa189b928c272e9deafaa8c995a48033d94250dc863a",
            "0x000000000000000000000000a51afafe0263b40edaef0df8781ea9aa03e381a3"
          ],
          "data": "0x000000000000000000000000000000000000000000000000000000000000000000000000000000000000000000000000000000000000000000000000000000000000000000000000000000000000000000000001000000000000000000000000000000000000000000000000000000000000000000000000000000000000000000000000000000000000000000000000000000000000000000000000000000000000000000000000000000000000000000000000000000000000000000000000",
          "blockHash": "0xa50a7fdc662661d515401fb33c1d09bed48d9ced1fe30e665d2c2be0c265e9ab",
          "blockNumber": "0x148631df",
          "transactionHash": "0x0cb067d3cf240b2904fa99c9c1a3cd7be8cba1ea55655d1d96e71793aae65272",
          "transactionIndex": "0x3",
          "logIndex": "0x6",
          "removed": false
        },
        {
          "address": "0x8fcfd6683b1186f27df161c1e0c793959cd99b9a",
          "topics": [
            "0xddf252ad1be2c89b69c2b068fc378daa952ba7f163c4a11628f55a4df523b3ef",
            "0x000000000000000000000000000000030c764379b92bb9d0ab4b3455d5dc8e92",
            "0x000000000000000000000000360e68faccca8ca495c1b759fd9eee466db9fb32"
          ],
          "data": "0x00000000000000000000000000000000000000000000003635c9adc5dea00000",
          "blockHash": "0xa50a7fdc662661d515401fb33c1d09bed48d9ced1fe30e665d2c2be0c265e9ab",
          "blockNumber": "0x148631df",
          "transactionHash": "0x0cb067d3cf240b2904fa99c9c1a3cd7be8cba1ea55655d1d96e71793aae65272",
          "transactionIndex": "0x3",
          "logIndex": "0x7",
          "removed": false
        },
        {
          "address": "0xd1aaa1dd753610fa1f5eb7b184af26fc38ae6a5a",
          "topics": [
            "0xddf252ad1be2c89b69c2b068fc378daa952ba7f163c4a11628f55a4df523b3ef",
            "0x000000000000000000000000360e68faccca8ca495c1b759fd9eee466db9fb32",
            "0x000000000000000000000000000000030c764379b92bb9d0ab4b3455d5dc8e92"
          ],
          "data": "0x0000000000000000000000000000000000000000000000362ed94b9d4d7f3ab3",
          "blockHash": "0xa50a7fdc662661d515401fb33c1d09bed48d9ced1fe30e665d2c2be0c265e9ab",
          "blockNumber": "0x148631df",
          "transactionHash": "0x0cb067d3cf240b2904fa99c9c1a3cd7be8cba1ea55655d1d96e71793aae65272",
          "transactionIndex": "0x3",
          "logIndex": "0x8",
          "removed": false
        }
      ],
      "logsBloom": "0x00010000010000000000000041004000000000000000000204000000000000000000000000008000000000000800000000000000040000004000000001000000000000000000000001002008000804040000000000000020000000000000000000400000020000000000000000000800000000000000008000000010000000000000000000000000000000000400000000000000000028000000000004800000000000000000000000040000000021000020010001000000000000000000000400000002000000000400000000000000000004000000000004200000000020000000000010000400004008000000000000000000000000000000000004000008",
      "type": "0x2",
      "transactionHash": "0x0cb067d3cf240b2904fa99c9c1a3cd7be8cba1ea55655d1d96e71793aae65272",
      "transactionIndex": "0x3",
      "blockHash": "0xa50a7fdc662661d515401fb33c1d09bed48d9ced1fe30e665d2c2be0c265e9ab",
      "blockNumber": "0x148631df",
      "gasUsed": "0x3019f",
      "effectiveGasPrice": "0x989680",
      "from": "0x000000030c764379b92bb9d0ab4b3455d5dc8e92",
      "to": "0xa51afafe0263b40edaef0df8781ea9aa03e381a3",
      "contractAddress": null,
      "gasUsedForL1": "0x44b8",
      "l1BlockNumber": "0x1597d88",
      "timeboosted": false
    }
  ],
  "libraries": [],
  "pending": [],
  "returns": {},
  "timestamp": 1749170599,
  "chain": 42161,
  "commit": "09175f4"
}